{
  "contractName": "BetContract",
  "abi": [
    {
      "anonymous": false,
      "inputs": [
        {
          "indexed": false,
          "internalType": "uint256",
          "name": "id",
          "type": "uint256"
        },
        {
          "indexed": false,
          "internalType": "string",
          "name": "question",
          "type": "string"
        },
        {
          "indexed": false,
          "internalType": "string[]",
          "name": "choices",
          "type": "string[]"
        }
      ],
      "name": "BetCreated",
      "type": "event"
    },
    {
      "anonymous": false,
      "inputs": [
        {
          "indexed": false,
          "internalType": "uint256",
          "name": "betId",
          "type": "uint256"
        },
        {
          "indexed": false,
          "internalType": "address",
          "name": "bettor",
          "type": "address"
        },
        {
          "indexed": false,
          "internalType": "uint256",
          "name": "choice",
          "type": "uint256"
        },
        {
          "indexed": false,
          "internalType": "uint256",
          "name": "amount",
          "type": "uint256"
        }
      ],
      "name": "BetPlaced",
      "type": "event"
    },
    {
      "anonymous": false,
      "inputs": [
        {
          "indexed": false,
          "internalType": "uint256",
          "name": "betId",
          "type": "uint256"
        },
        {
          "indexed": false,
          "internalType": "uint256",
          "name": "winningChoice",
          "type": "uint256"
        }
      ],
      "name": "BetWinnerDeclared",
      "type": "event"
    },
    {
      "inputs": [
        {
          "internalType": "uint256",
          "name": "",
          "type": "uint256"
        }
      ],
      "name": "bets",
      "outputs": [
        {
          "internalType": "uint256",
          "name": "id",
          "type": "uint256"
        },
        {
          "internalType": "string",
          "name": "question",
          "type": "string"
        },
        {
          "internalType": "uint256",
          "name": "amount",
          "type": "uint256"
        },
        {
          "internalType": "bool",
          "name": "isActive",
          "type": "bool"
        },
        {
          "internalType": "address",
          "name": "createdBy",
          "type": "address"
        },
        {
          "internalType": "uint256",
          "name": "winningChoice",
          "type": "uint256"
        }
      ],
      "stateMutability": "view",
      "type": "function"
    },
    {
      "inputs": [
        {
          "internalType": "address",
          "name": "",
          "type": "address"
        }
      ],
      "name": "registeredUsers",
      "outputs": [
        {
          "internalType": "bool",
          "name": "",
          "type": "bool"
        }
      ],
      "stateMutability": "view",
      "type": "function"
    },
    {
      "inputs": [],
      "name": "totalBets",
      "outputs": [
        {
          "internalType": "uint256",
          "name": "",
          "type": "uint256"
        }
      ],
      "stateMutability": "view",
      "type": "function"
    },
    {
      "inputs": [
        {
          "internalType": "address",
          "name": "",
          "type": "address"
        },
        {
          "internalType": "uint256",
          "name": "",
          "type": "uint256"
        }
      ],
      "name": "userBetPlaced",
      "outputs": [
        {
          "internalType": "bool",
          "name": "",
          "type": "bool"
        }
      ],
      "stateMutability": "view",
      "type": "function"
    },
    {
      "inputs": [
        {
          "internalType": "address",
          "name": "",
          "type": "address"
        }
      ],
      "name": "winnings",
      "outputs": [
        {
          "internalType": "uint256",
          "name": "",
          "type": "uint256"
        }
      ],
      "stateMutability": "view",
      "type": "function"
    },
    {
      "inputs": [],
      "name": "registerUser",
      "outputs": [],
      "stateMutability": "nonpayable",
      "type": "function"
    },
    {
      "inputs": [
        {
          "internalType": "uint256",
          "name": "_betId",
          "type": "uint256"
        }
      ],
      "name": "getBet",
      "outputs": [
        {
          "components": [
            {
              "internalType": "uint256",
              "name": "id",
              "type": "uint256"
            },
            {
              "internalType": "string",
              "name": "question",
              "type": "string"
            },
            {
              "internalType": "string[]",
              "name": "choices",
              "type": "string[]"
            },
            {
              "internalType": "uint256",
              "name": "amountPlaced",
              "type": "uint256"
            },
            {
              "internalType": "bool[]",
              "name": "choicesMade",
              "type": "bool[]"
            },
            {
              "internalType": "bool",
              "name": "isActive",
              "type": "bool"
            },
            {
              "internalType": "uint256",
              "name": "winningChoice",
              "type": "uint256"
            }
          ],
          "internalType": "struct BetContract.BetInfo",
          "name": "",
          "type": "tuple"
        }
      ],
      "stateMutability": "view",
      "type": "function"
    },
    {
      "inputs": [
        {
          "internalType": "string",
          "name": "_question",
          "type": "string"
        },
        {
          "internalType": "string[]",
          "name": "_choices",
          "type": "string[]"
        }
      ],
      "name": "createBet",
      "outputs": [],
      "stateMutability": "nonpayable",
      "type": "function"
    },
    {
      "inputs": [
        {
          "internalType": "uint256",
          "name": "_betId",
          "type": "uint256"
        },
        {
          "internalType": "uint256",
          "name": "_choice",
          "type": "uint256"
        }
      ],
      "name": "placeBet",
      "outputs": [],
      "stateMutability": "payable",
      "type": "function"
    },
    {
      "inputs": [
        {
          "internalType": "uint256",
          "name": "_betId",
          "type": "uint256"
        },
        {
          "internalType": "uint256",
          "name": "_winningChoice",
          "type": "uint256"
        }
      ],
      "name": "declareWinner",
      "outputs": [],
      "stateMutability": "nonpayable",
      "type": "function"
    }
  ],
  "bytecode": "0x608060405234801561000f575f80fd5b506124198061001d5f395ff3fe608060405260043610610090575f3560e01c80634d3820eb116100585780634d3820eb146101915780636788be03146101a7578063796782fd146101cf578063befa1e2f1461020b578063ea3a14991461023557610090565b8063061e494f146100945780630e50cee5146100d05780631643c8c41461010c57806322af00fa146101345780634afe62b514610175575b5f80fd5b34801561009f575f80fd5b506100ba60048036038101906100b59190611209565b610271565b6040516100c791906114f1565b60405180910390f35b3480156100db575f80fd5b506100f660048036038101906100f1919061156b565b6105c6565b60405161010391906115a5565b60405180910390f35b348015610117575f80fd5b50610132600480360381019061012d91906115be565b6105e3565b005b34801561013f575f80fd5b5061015a60048036038101906101559190611209565b610a29565b60405161016c96959493929190611662565b60405180910390f35b61018f600480360381019061018a91906115be565b610b21565b005b34801561019c575f80fd5b506101a5610e7f565b005b3480156101b2575f80fd5b506101cd60048036038101906101c891906118d6565b610ed6565b005b3480156101da575f80fd5b506101f560048036038101906101f0919061194c565b611073565b60405161020291906115a5565b60405180910390f35b348015610216575f80fd5b5061021f61109d565b60405161022c919061198a565b60405180910390f35b348015610240575f80fd5b5061025b6004803603810190610256919061156b565b6110a3565b604051610268919061198a565b60405180910390f35b6102796110b8565b60015482106102bd576040517f08c379a00000000000000000000000000000000000000000000000000000000081526004016102b4906119ed565b60405180910390fd5b5f8083815481106102d1576102d0611a0b565b5b905f5260205f20906007020190506102e76110b8565b815f0154815f01818152505081600101805461030290611a65565b80601f016020809104026020016040519081016040528092919081815260200182805461032e90611a65565b80156103795780601f1061035057610100808354040283529160200191610379565b820191905f5260205f20905b81548152906001019060200180831161035c57829003601f168201915b5050505050816020018190525081600201805480602002602001604051908101604052809291908181526020015f905b82821015610451578382905f5260205f200180546103c690611a65565b80601f01602080910402602001604051908101604052809291908181526020018280546103f290611a65565b801561043d5780601f106104145761010080835404028352916020019161043d565b820191905f5260205f20905b81548152906001019060200180831161042057829003601f168201915b5050505050815260200190600101906103a9565b505050508160400181905250816003015f3373ffffffffffffffffffffffffffffffffffffffff1673ffffffffffffffffffffffffffffffffffffffff1681526020019081526020015f2054816060018181525050816002018054905067ffffffffffffffff8111156104c7576104c66116d0565b5b6040519080825280602002602001820160405280156104f55781602001602082028036833780820191505090505b508160800181905250816005015f9054906101000a900460ff168160a001901515908115158152505081600601548160c00181815250505f5b82600201805490508110156105bb5780836003015f3373ffffffffffffffffffffffffffffffffffffffff1673ffffffffffffffffffffffffffffffffffffffff1681526020019081526020015f2054148260800151828151811061059657610595611a0b565b5b60200260200101901515908115158152505080806105b390611ac2565b91505061052e565b508092505050919050565b6002602052805f5260405f205f915054906101000a900460ff1681565b6001548210610627576040517f08c379a000000000000000000000000000000000000000000000000000000000815260040161061e906119ed565b60405180910390fd5b5f80838154811061063b5761063a611a0b565b5b905f5260205f20906007020190508060050160019054906101000a900473ffffffffffffffffffffffffffffffffffffffff1673ffffffffffffffffffffffffffffffffffffffff163373ffffffffffffffffffffffffffffffffffffffff16146106db576040517f08c379a00000000000000000000000000000000000000000000000000000000081526004016106d290611b79565b60405180910390fd5b80600201805490508210610724576040517f08c379a000000000000000000000000000000000000000000000000000000000815260040161071b90611be1565b60405180910390fd5b806005015f9054906101000a900460ff16610774576040517f08c379a000000000000000000000000000000000000000000000000000000000815260040161076b90611c49565b60405180910390fd5b5f816005015f6101000a81548160ff0219169083151502179055508181600601819055507f0a39014d5cb2cb9513ccd408692fbda0a6190b259fc649c6013bc8bda8ee3aaa83836040516107c9929190611c67565b60405180910390a15f4790505f805f5b8460020180549050811015610811578581036107fe5781806107fa90611ac2565b9250505b808061080990611ac2565b9150506107d9565b505f5b846002018054905081101561099f575f8190505f866003015f8373ffffffffffffffffffffffffffffffffffffffff1673ffffffffffffffffffffffffffffffffffffffff1681526020019081526020015f20549050878303610901575f8488600401546108829190611c8e565b828861088e9190611c8e565b6108989190611cfc565b90508060035f8573ffffffffffffffffffffffffffffffffffffffff1673ffffffffffffffffffffffffffffffffffffffff1681526020019081526020015f205f8282546108e69190611d2c565b9250508190555080866108f99190611d2c565b955050610946565b8173ffffffffffffffffffffffffffffffffffffffff166108fc8290811502906040515f60405180830381858888f19350505050158015610944573d5f803e3d5ffd5b505b5f876003015f8473ffffffffffffffffffffffffffffffffffffffff1673ffffffffffffffffffffffffffffffffffffffff1681526020019081526020015f20819055505050808061099790611ac2565b915050610814565b505f82846109ad9190611d5f565b90505f811115610a20578460050160019054906101000a900473ffffffffffffffffffffffffffffffffffffffff1673ffffffffffffffffffffffffffffffffffffffff166108fc8290811502906040515f60405180830381858888f19350505050158015610a1e573d5f803e3d5ffd5b505b50505050505050565b5f8181548110610a37575f80fd5b905f5260205f2090600702015f91509050805f015490806001018054610a5c90611a65565b80601f0160208091040260200160405190810160405280929190818152602001828054610a8890611a65565b8015610ad35780601f10610aaa57610100808354040283529160200191610ad3565b820191905f5260205f20905b815481529060010190602001808311610ab657829003601f168201915b505050505090806004015490806005015f9054906101000a900460ff16908060050160019054906101000a900473ffffffffffffffffffffffffffffffffffffffff16908060060154905086565b60025f3373ffffffffffffffffffffffffffffffffffffffff1673ffffffffffffffffffffffffffffffffffffffff1681526020019081526020015f205f9054906101000a900460ff16610baa576040517f08c379a0000000000000000000000000000000000000000000000000000000008152600401610ba190611ddc565b60405180910390fd5b6001548210610bee576040517f08c379a0000000000000000000000000000000000000000000000000000000008152600401610be5906119ed565b60405180910390fd5b5f808381548110610c0257610c01611a0b565b5b905f5260205f209060070201905080600201805490508210610c59576040517f08c379a0000000000000000000000000000000000000000000000000000000008152600401610c5090611e44565b60405180910390fd5b806005015f9054906101000a900460ff16610ca9576040517f08c379a0000000000000000000000000000000000000000000000000000000008152600401610ca090611c49565b60405180910390fd5b5f3411610ceb576040517f08c379a0000000000000000000000000000000000000000000000000000000008152600401610ce290611eac565b60405180910390fd5b60045f3373ffffffffffffffffffffffffffffffffffffffff1673ffffffffffffffffffffffffffffffffffffffff1681526020019081526020015f205f8481526020019081526020015f205f9054906101000a900460ff1615610d84576040517f08c379a0000000000000000000000000000000000000000000000000000000008152600401610d7b90611f14565b60405180910390fd5b34816003015f3373ffffffffffffffffffffffffffffffffffffffff1673ffffffffffffffffffffffffffffffffffffffff1681526020019081526020015f205f828254610dd29190611d2c565b92505081905550600160045f3373ffffffffffffffffffffffffffffffffffffffff1673ffffffffffffffffffffffffffffffffffffffff1681526020019081526020015f205f8581526020019081526020015f205f6101000a81548160ff0219169083151502179055507f1b8a9031cb9351278d70a994f81536e9e08c91162e64f92b2fe4766fb7a891b483338434604051610e729493929190611f32565b60405180910390a1505050565b600160025f3373ffffffffffffffffffffffffffffffffffffffff1673ffffffffffffffffffffffffffffffffffffffff1681526020019081526020015f205f6101000a81548160ff021916908315150217905550565b60025f3373ffffffffffffffffffffffffffffffffffffffff1673ffffffffffffffffffffffffffffffffffffffff1681526020019081526020015f205f9054906101000a900460ff16610f5f576040517f08c379a0000000000000000000000000000000000000000000000000000000008152600401610f5690611ddc565b60405180910390fd5b5f8060018160018154018082558091505003905f5260205f2090600702019050600154815f018190555082816001019081610f9a9190612112565b5081816002019080519060200190610fb39291906110f3565b506001816005015f6101000a81548160ff021916908315150217905550338160050160016101000a81548173ffffffffffffffffffffffffffffffffffffffff021916908373ffffffffffffffffffffffffffffffffffffffff16021790555060015f81548092919061102590611ac2565b91905055507f4538c39e84407a3d0f84f8064432d48edac9affc682c4bf829d24b2cd4f1ddda815f01548260010183600201604051611066939291906123a0565b60405180910390a1505050565b6004602052815f5260405f20602052805f5260405f205f915091509054906101000a900460ff1681565b60015481565b6003602052805f5260405f205f915090505481565b6040518060e001604052805f815260200160608152602001606081526020015f8152602001606081526020015f151581526020015f81525090565b828054828255905f5260205f20908101928215611139579160200282015b828111156111385782518290816111289190612112565b5091602001919060010190611111565b5b509050611146919061114a565b5090565b5b80821115611169575f8181611160919061116d565b5060010161114b565b5090565b50805461117990611a65565b5f825580601f1061118a57506111a7565b601f0160209004905f5260205f20908101906111a691906111aa565b5b50565b5b808211156111c1575f815f9055506001016111ab565b5090565b5f604051905090565b5f80fd5b5f80fd5b5f819050919050565b6111e8816111d6565b81146111f2575f80fd5b50565b5f81359050611203816111df565b92915050565b5f6020828403121561121e5761121d6111ce565b5b5f61122b848285016111f5565b91505092915050565b61123d816111d6565b82525050565b5f81519050919050565b5f82825260208201905092915050565b5f5b8381101561127a57808201518184015260208101905061125f565b5f8484015250505050565b5f601f19601f8301169050919050565b5f61129f82611243565b6112a9818561124d565b93506112b981856020860161125d565b6112c281611285565b840191505092915050565b5f81519050919050565b5f82825260208201905092915050565b5f819050602082019050919050565b5f6113018383611295565b905092915050565b5f602082019050919050565b5f61131f826112cd565b61132981856112d7565b93508360208202850161133b856112e7565b805f5b85811015611376578484038952815161135785826112f6565b945061136283611309565b925060208a0199505060018101905061133e565b50829750879550505050505092915050565b5f81519050919050565b5f82825260208201905092915050565b5f819050602082019050919050565b5f8115159050919050565b6113c5816113b1565b82525050565b5f6113d683836113bc565b60208301905092915050565b5f602082019050919050565b5f6113f882611388565b6114028185611392565b935061140d836113a2565b805f5b8381101561143d57815161142488826113cb565b975061142f836113e2565b925050600181019050611410565b5085935050505092915050565b5f60e083015f83015161145f5f860182611234565b50602083015184820360208601526114778282611295565b915050604083015184820360408601526114918282611315565b91505060608301516114a66060860182611234565b50608083015184820360808601526114be82826113ee565b91505060a08301516114d360a08601826113bc565b5060c08301516114e660c0860182611234565b508091505092915050565b5f6020820190508181035f830152611509818461144a565b905092915050565b5f73ffffffffffffffffffffffffffffffffffffffff82169050919050565b5f61153a82611511565b9050919050565b61154a81611530565b8114611554575f80fd5b50565b5f8135905061156581611541565b92915050565b5f602082840312156115805761157f6111ce565b5b5f61158d84828501611557565b91505092915050565b61159f816113b1565b82525050565b5f6020820190506115b85f830184611596565b92915050565b5f80604083850312156115d4576115d36111ce565b5b5f6115e1858286016111f5565b92505060206115f2858286016111f5565b9150509250929050565b611605816111d6565b82525050565b5f82825260208201905092915050565b5f61162582611243565b61162f818561160b565b935061163f81856020860161125d565b61164881611285565b840191505092915050565b61165c81611530565b82525050565b5f60c0820190506116755f8301896115fc565b8181036020830152611687818861161b565b905061169660408301876115fc565b6116a36060830186611596565b6116b06080830185611653565b6116bd60a08301846115fc565b979650505050505050565b5f80fd5b5f80fd5b7f4e487b71000000000000000000000000000000000000000000000000000000005f52604160045260245ffd5b61170682611285565b810181811067ffffffffffffffff82111715611725576117246116d0565b5b80604052505050565b5f6117376111c5565b905061174382826116fd565b919050565b5f67ffffffffffffffff821115611762576117616116d0565b5b61176b82611285565b9050602081019050919050565b828183375f83830152505050565b5f61179861179384611748565b61172e565b9050828152602081018484840111156117b4576117b36116cc565b5b6117bf848285611778565b509392505050565b5f82601f8301126117db576117da6116c8565b5b81356117eb848260208601611786565b91505092915050565b5f67ffffffffffffffff82111561180e5761180d6116d0565b5b602082029050602081019050919050565b5f80fd5b5f611835611830846117f4565b61172e565b905080838252602082019050602084028301858111156118585761185761181f565b5b835b8181101561189f57803567ffffffffffffffff81111561187d5761187c6116c8565b5b80860161188a89826117c7565b8552602085019450505060208101905061185a565b5050509392505050565b5f82601f8301126118bd576118bc6116c8565b5b81356118cd848260208601611823565b91505092915050565b5f80604083850312156118ec576118eb6111ce565b5b5f83013567ffffffffffffffff811115611909576119086111d2565b5b611915858286016117c7565b925050602083013567ffffffffffffffff811115611936576119356111d2565b5b611942858286016118a9565b9150509250929050565b5f8060408385031215611962576119616111ce565b5b5f61196f85828601611557565b9250506020611980858286016111f5565b9150509250929050565b5f60208201905061199d5f8301846115fc565b92915050565b7f496e76616c6964206265742049440000000000000000000000000000000000005f82015250565b5f6119d7600e8361160b565b91506119e2826119a3565b602082019050919050565b5f6020820190508181035f830152611a04816119cb565b9050919050565b7f4e487b71000000000000000000000000000000000000000000000000000000005f52603260045260245ffd5b7f4e487b71000000000000000000000000000000000000000000000000000000005f52602260045260245ffd5b5f6002820490506001821680611a7c57607f821691505b602082108103611a8f57611a8e611a38565b5b50919050565b7f4e487b71000000000000000000000000000000000000000000000000000000005f52601160045260245ffd5b5f611acc826111d6565b91507fffffffffffffffffffffffffffffffffffffffffffffffffffffffffffffffff8203611afe57611afd611a95565b5b600182019050919050565b7f4f6e6c79207468652063726561746f722063616e206465636c617265207468655f8201527f2077696e6e657200000000000000000000000000000000000000000000000000602082015250565b5f611b6360278361160b565b9150611b6e82611b09565b604082019050919050565b5f6020820190508181035f830152611b9081611b57565b9050919050565b7f496e76616c69642077696e6e696e672063686f696365000000000000000000005f82015250565b5f611bcb60168361160b565b9150611bd682611b97565b602082019050919050565b5f6020820190508181035f830152611bf881611bbf565b9050919050565b7f426574206973206e6f74206163746976650000000000000000000000000000005f82015250565b5f611c3360118361160b565b9150611c3e82611bff565b602082019050919050565b5f6020820190508181035f830152611c6081611c27565b9050919050565b5f604082019050611c7a5f8301856115fc565b611c8760208301846115fc565b9392505050565b5f611c98826111d6565b9150611ca3836111d6565b9250828202611cb1816111d6565b91508282048414831517611cc857611cc7611a95565b5b5092915050565b7f4e487b71000000000000000000000000000000000000000000000000000000005f52601260045260245ffd5b5f611d06826111d6565b9150611d11836111d6565b925082611d2157611d20611ccf565b5b828204905092915050565b5f611d36826111d6565b9150611d41836111d6565b9250828201905080821115611d5957611d58611a95565b5b92915050565b5f611d69826111d6565b9150611d74836111d6565b9250828203905081811115611d8c57611d8b611a95565b5b92915050565b7f55736572206973206e6f742072656769737465726564000000000000000000005f82015250565b5f611dc660168361160b565b9150611dd182611d92565b602082019050919050565b5f6020820190508181035f830152611df381611dba565b9050919050565b7f496e76616c69642063686f6963650000000000000000000000000000000000005f82015250565b5f611e2e600e8361160b565b9150611e3982611dfa565b602082019050919050565b5f6020820190508181035f830152611e5b81611e22565b9050919050565b7f496e636f72726563742062657420616d6f756e740000000000000000000000005f82015250565b5f611e9660148361160b565b9150611ea182611e62565b602082019050919050565b5f6020820190508181035f830152611ec381611e8a565b9050919050565b7f42657420616c726561647920706c6163656420627920746865207573657200005f82015250565b5f611efe601e8361160b565b9150611f0982611eca565b602082019050919050565b5f6020820190508181035f830152611f2b81611ef2565b9050919050565b5f608082019050611f455f8301876115fc565b611f526020830186611653565b611f5f60408301856115fc565b611f6c60608301846115fc565b95945050505050565b5f819050815f5260205f209050919050565b5f6020601f8301049050919050565b5f82821b905092915050565b5f60088302611fd17fffffffffffffffffffffffffffffffffffffffffffffffffffffffffffffffff82611f96565b611fdb8683611f96565b95508019841693508086168417925050509392505050565b5f819050919050565b5f61201661201161200c846111d6565b611ff3565b6111d6565b9050919050565b5f819050919050565b61202f83611ffc565b61204361203b8261201d565b848454611fa2565b825550505050565b5f90565b61205761204b565b612062818484612026565b505050565b5b818110156120855761207a5f8261204f565b600181019050612068565b5050565b601f8211156120ca5761209b81611f75565b6120a484611f87565b810160208510156120b3578190505b6120c76120bf85611f87565b830182612067565b50505b505050565b5f82821c905092915050565b5f6120ea5f19846008026120cf565b1980831691505092915050565b5f61210283836120db565b9150826002028217905092915050565b61211b82611243565b67ffffffffffffffff811115612134576121336116d0565b5b61213e8254611a65565b612149828285612089565b5f60209050601f83116001811461217a575f8415612168578287015190505b61217285826120f7565b8655506121d9565b601f19841661218886611f75565b5f5b828110156121af5784890151825560018201915060208501945060208101905061218a565b868310156121cc57848901516121c8601f8916826120db565b8355505b6001600288020188555050505b505050505050565b5f81546121ed81611a65565b6121f7818661160b565b9450600182165f8114612211576001811461222757612259565b60ff198316865281151560200286019350612259565b61223085611f75565b5f5b8381101561225157815481890152600182019150602081019050612232565b808801955050505b50505092915050565b5f81549050919050565b5f82825260208201905092915050565b5f819050815f5260205f209050919050565b5f815461229a81611a65565b6122a4818661124d565b9450600182165f81146122be57600181146122d457612306565b60ff198316865281151560200286019350612306565b6122dd85611f75565b5f5b838110156122fe578154818901526001820191506020810190506122df565b808801955050505b50505092915050565b5f61231a838361228e565b905092915050565b5f600182019050919050565b5f61233882612262565b612342818561226c565b9350836020820285016123548561227c565b805f5b8581101561238e5784840389528161236f858261230f565b945061237a83612322565b925060208a01995050600181019050612357565b50829750879550505050505092915050565b5f6060820190506123b35f8301866115fc565b81810360208301526123c581856121e1565b905081810360408301526123d9818461232e565b905094935050505056fea26469706673582212202e6bc4445fddd4866d6878f563ade69610ae818e999a50f029f8207c55f647bc64736f6c63430008140033",
  "immutableReferences": {},
  "source": "// SPDX-License-Identifier: UNLICENSED\r\npragma solidity ^0.8.0;\r\n\r\ncontract BetContract {\r\n    struct Bet {\r\n        uint256 id;\r\n        string question;\r\n        string[] choices;\r\n        mapping(address => uint256) bets;\r\n        uint256 amount;\r\n        bool isActive;\r\n        address createdBy;\r\n        uint256 winningChoice;\r\n    }\r\n\r\n    struct BetInfo {\r\n        uint256 id;\r\n        string question;\r\n        string[] choices;\r\n        uint256 amountPlaced;\r\n        bool[] choicesMade;\r\n        bool isActive;\r\n        uint256 winningChoice;\r\n    }\r\n\r\n    Bet[] public bets;\r\n    uint256 public totalBets;\r\n\r\n    mapping(address => bool) public registeredUsers;\r\n    mapping(address => uint256) public winnings;\r\n    mapping(address => mapping(uint256 => bool)) public userBetPlaced;\r\n\r\n    modifier onlyRegistered() {\r\n        require(registeredUsers[msg.sender], 'User is not registered');\r\n        _;\r\n    }\r\n\r\n    event BetCreated(uint256 id, string question, string[] choices);\r\n    event BetPlaced(uint256 betId, address bettor, uint256 choice, uint256 amount);\r\n    event BetWinnerDeclared(uint256 betId, uint256 winningChoice);\r\n\r\n    function registerUser() external {\r\n        registeredUsers[msg.sender] = true;\r\n    }\r\n\r\n    function getBet(uint256 _betId) external view returns (BetInfo memory) {\r\n        require(_betId < totalBets, 'Invalid bet ID');\r\n        Bet storage bet = bets[_betId];\r\n        BetInfo memory betInfo;\r\n        betInfo.id = bet.id;\r\n        betInfo.question = bet.question;\r\n        betInfo.choices = bet.choices;\r\n        betInfo.amountPlaced = bet.bets[msg.sender];\r\n        betInfo.choicesMade = new bool[](bet.choices.length);\r\n        betInfo.isActive = bet.isActive;\r\n        betInfo.winningChoice = bet.winningChoice;\r\n\r\n        for (uint256 i = 0; i < bet.choices.length; i++) {\r\n            betInfo.choicesMade[i] = (bet.bets[msg.sender] == i);\r\n        }\r\n\r\n        return betInfo;\r\n    }\r\n\r\n    function createBet(string memory _question, string[] memory _choices) external onlyRegistered {\r\n        Bet storage newBet = bets.push();\r\n        newBet.id = totalBets;\r\n        newBet.question = _question;\r\n        newBet.choices = _choices;\r\n        newBet.isActive = true;\r\n        newBet.createdBy = msg.sender;\r\n        totalBets++;\r\n        emit BetCreated(newBet.id, newBet.question, newBet.choices);\r\n    }\r\n\r\n    function placeBet(uint256 _betId, uint256 _choice) external payable onlyRegistered {\r\n        require(_betId < totalBets, 'Invalid bet ID');\r\n        Bet storage bet = bets[_betId];\r\n        require(_choice < bet.choices.length, 'Invalid choice');\r\n        require(bet.isActive, 'Bet is not active');\r\n        require(msg.value > 0, 'Incorrect bet amount');\r\n        require(!userBetPlaced[msg.sender][_betId], 'Bet already placed by the user');\r\n\r\n        bet.bets[msg.sender] += msg.value;\r\n        userBetPlaced[msg.sender][_betId] = true;\r\n        emit BetPlaced(_betId, msg.sender, _choice, msg.value);\r\n    }\r\n\r\n    function declareWinner(uint256 _betId, uint256 _winningChoice) external {\r\n        require(_betId < totalBets, 'Invalid bet ID');\r\n        Bet storage bet = bets[_betId];\r\n        require(msg.sender == bet.createdBy, 'Only the creator can declare the winner');\r\n        require(_winningChoice < bet.choices.length, 'Invalid winning choice');\r\n        require(bet.isActive, 'Bet is not active');\r\n\r\n        bet.isActive = false;\r\n        bet.winningChoice = _winningChoice;\r\n        emit BetWinnerDeclared(_betId, _winningChoice);\r\n\r\n        uint256 totalAmount = address(this).balance;\r\n        uint256 winningAmount = 0;\r\n        uint256 totalWinners = 0;\r\n\r\n        // Calculate the total winning amount and count the number of winners\r\n        for (uint256 i = 0; i < bet.choices.length; i++) {\r\n            if (i == _winningChoice) {\r\n                totalWinners++;\r\n            }\r\n        }\r\n\r\n        // Distribute winnings to the winners and refund the remaining amount to participants\r\n        for (uint256 i = 0; i < bet.choices.length; i++) {\r\n            address bettor = address(uint160(i));\r\n            uint256 betAmount = bet.bets[bettor];\r\n            if (i == _winningChoice) {\r\n                uint256 winAmount = (totalAmount * betAmount) / (bet.amount * totalWinners);\r\n                winnings[bettor] += winAmount;\r\n                winningAmount += winAmount;\r\n            } else {\r\n                payable(bettor).transfer(betAmount);\r\n            }\r\n            bet.bets[bettor] = 0;\r\n        }\r\n\r\n        // Refund any remaining amount to the contract owner\r\n        uint256 remainingAmount = totalAmount - winningAmount;\r\n        if (remainingAmount > 0) {\r\n            payable(bet.createdBy).transfer(remainingAmount);\r\n        }\r\n    }\r\n}\r\n",
  "sourcePath": "C:\\Users\\ragha\\OneDrive\\Documents\\Projects\\Blockchain\\betting\\src\\contracts\\BetContract.sol",
  "compiler": {
    "name": "solc",
    "version": "0.8.20+commit.a1b79de6.Emscripten.clang"
  },
  "schemaVersion": "3.4.13",
  "updatedAt": "2023-05-14T07:02:05.982Z",
  "devdoc": {
    "kind": "dev",
    "methods": {},
    "version": 1
  },
  "userdoc": {
    "kind": "user",
    "methods": {},
    "version": 1
  }
}